:1000000001308A008E290000FF00030E8301A10049
:100010000A08A0008A010408A2007708A300780853
:10002000A4007908A5007A08A600831383128C30F7
:100030008400001C1D280C1834288C308400801D7E
:1000400023288C193728220884002308F700240865
:10005000F8002508F9002608FA0020088A00210E79
:100060008300FF0E7F0E09008A110A1246288A11AA
:100070000A1296280A108A100A11820701340334E2
:100080000234063404340C340834093430088F0048
:100090002F088E003B083902031C6028031D5428DA
:1000A00038083A020318602838080319B903B8035E
:1000B000B708031D5E280730B7005F28B703742810
:1000C00039083B02031C7428031D6A283A083802C9
:1000D00003187428B80A0319B90A3708073C031D26
:1000E0007328B7017428B70A37083A20BE00831670
:1000F000860183123E0886000C108A110A122328FA
:10010000C2013F08C1004108FA000030C1017A086D
:10011000C2004008C300C40143084107BA004208B6
:10012000BB0044080318440FBB0708008316941A49
:10013000A1288312BC018316141DA1288312BC17A9
:10014000831683123C08BC0AAB002B08803C031DBD
:10015000B7282908BF003F08930014168C11831696
:100160001418B028F8018312141AF80A7629141307
:100170008C1DB82813081416BE002B0BC2283E088D
:10018000AC0076292B08023C031DC9283E08AD00AF
:1001900076292B08033C031D76293E08AE002C0867
:1001A000703A0319F528203A0319F528383A03194B
:1001B0000929203A03190929303A03192629203A36
:1001C00003192629353A03193829203A0319382901
:1001D000393A03194629203A03194629303A0319B6
:1001E0006829203A0319682976292D080319FC2863
:1001F000013A0319002908292908AA00A901082998
:10020000A908031D07292908AA000130A900082907
:1002100076292D0803191029013A031920292529C7
:10022000290B17292908AA000930A9001F29290824
:10023000053C031D1F292908AA000F30A900252904
:100240002908AA000B30A9002529762929080F3C86
:10025000031D33293908BB003808BA002908AA0051
:100260000530A90037292908AA000130A9007629FC
:100270002908053C031D45292D08BF002E08C00094
:1002800080202908AA000D30A90076292908053CFC
:10029000031D67292D08BF002E08C000C2013F08BA
:1002A000C1004108FA000030C1017A08C2004008CC
:1002B000C300C40143084107AF004208B00044082E
:1002C0000318440FB0072908AA001530A9007629A1
:1002D0002908153C031D75292D08BF002E08C000F4
:1002E00080202908AA002D30A90076298C118A11B6
:1002F0000A1223283D3084008313000803198D2936
:100300000230F800F701F70B8329F80B82299730A8
:10031000F700F70B8929800B8029080084018313DB
:100320001F308305713083168F000F088312A815C4
:10033000280883168700831228162808831687004A
:100340001F309300363083129400F930B2007F30B2
:10035000B100D730B400E730B300A230B6000D30A2
:10036000B500831603170908C039890003131F124B
:100370009F120030031788008312870188018901CA
:10038000FF300313A8000330BC0000308316850043
:100390008600071487140711871683120711A90115
:1003A0000130AA00B701831603170908C039890074
:1003B00003131F129F1200300317880083120313C8
:1003C0001F139F1383169F1383121F148316010894
:1003D000C739083881000530831290000030F800DA
:1003E0009200003083169200831203178701880160
:1003F0008901831603130C148C15C03083128B04EF
:10040000713083168F000F088312A81628088316F0
:1004100087008312871E112A1030831693001B2A2F
:100420008312A8162808831687008312871A1C2AAD
:10043000203083169300831229080319382A013AC1
:1004400003194B2A0A3A0319592A023A0319952A21
:10045000063A0319AE2A0A3A0319CF2A103A0319A9
:10046000CF2A183A0319DE2A203A0319032B2E2B20
:100470002A1C422AAA012908850083160C1086012D
:100480008312860105143C30BD007A2105103C30F2
:10049000BD007A212E2B2908850083160C108312AB
:1004A00037083A20BD008316860183123D08860076
:1004B0002E2B29088500281128088316870083120F
:1004C00007153408B0003308AF0030088F002F083C
:1004D0008E00BB010A30BA0083160C148312281454
:1004E000280883168700831207187A2AB901643016
:1004F000B8006F2A3608B0003508AF00BB01643081
:10050000BA0028142808831687008312071C8C2A37
:10051000B9010A30B800812AB901B801BB01BA019A
:100520000B30AA000530A9002E2B290885003408BD
:10053000B0003308AF0030088F002F088E00BB01D9
:100540006430BA0083160C1483122908093C031D79
:10055000AD2AB9010A30B800A52A2E2B290885003A
:100560003408B0003308AF0030088F002F088E0029
:1005700032303807BA003908BB000318BB0A8316AB
:100580000C14831229080F3C031DCE2A3230380781
:10059000BA003908BB000318BB0AC22A2E2BAA1DB9
:1005A000DD2A2A12281128088316870083120711D2
:1005B0002908850083160C1083122E2B290885002C
:1005C0002811280883168700831207153208B00007
:1005D0003108AF0030088F002F088E0083160C14EE
:1005E000831229080D3C031DFE2A3A083802031D18
:1005F000FD2A3B0839020319FE2AF12A0D30AA0010
:100600000530A9002E2B29088500A8142808831678
:1006100087008312871C052B83160C148312281164
:100620002808831687008312071529082D3C031D0F
:10063000292BA8142808831687008312871C292BCE
:100640003A083802031D282B3B0839020319292BCD
:10065000152B2D30AA000530A9002E2B1C2A630073
:04400E00F52CFF3F4F
:00000001FF
;PIC16F886
;CRC=D3A1  CREATED="02-Aug-16 02:08"
