:1000000001308A0076290000FF00030E8301A10061
:100010000A08A0008A010408A2007708A300780853
:10002000A4007908A5007A08A600831383128C30F7
:100030008400801E1D288C1A34288C308400801D7A
:1000400023288C193728220884002308F700240865
:10005000F8002508F9002608FA0020088A00210E79
:100060008300FF0E7F0E09008A110A123A288A11B6
:100070000A1280288C1E3A281A08C80048083A3A02
:1000800003194628373A03194A287028BC01013061
:10009000BD007C283D0B6F2828303C07840083136B
:1000A00080012808703A03195F28203A03195F2855
:1000B000243A03196D28203A03196D286E2829085F
:1000C000303A03196728013A031969286C28BE01E0
:1000D0006C280130BE006C286E286E28BD017C287B
:1000E0003C08133C031C7B2828303C078400831306
:1000F00048088000BC0A7C288C128A110A12232826
:100100008C118A110A122328C432F332EE32F233F0
:10011000693D6137E4372E17AE0600004537653973
:10012000E734FA306E326F172E170D00831603175F
:100130008C170C140000000083120C087F3903197F
:10014000DC280313C40003170D080313C5000317AD
:100150000F080313C60044080C1EAC28990045087C
:1001600003178D000313460803178F0083168C179F
:100170000C140000000083120C0D0E0D7F390319C2
:10018000DC280313C40003170D080313C50003176D
:100190000F080313C60044080C1ECC28990045081C
:1001A00003178D000313460803178F008D0A0319E8
:1001B0008F0A031396280317031308000830F8006A
:1001C00000008711A71127088316870000008312FB
:1001D000C70D0712031CF22827162708831687006D
:1001E000F62883122712270883168700000083123F
:1001F000A7152708831687008312871DFD28F80B93
:10020000E02800008711A711270883168700000047
:100210008312271627088316870000000000831228
:10022000A7152708831687008312871D1529F80153
:100230000000071A78148711A71127088316870072
:1002400083120712271227088316870083120800DB
:10025000271627088316870000008312A715270892
:1002600083168700000083120712271227088316BF
:100270008700000083128711A711270883168700C3
:1002800083124408C700DE204508C700DE20460868
:10029000C700DE202712270883168700000083127C
:1002A000A7152708831687008312871D552900008C
:1002B00059290000271627088316870000003230CE
:1002C0008312C7004730840083130008031975297F
:1002D0000630F800F701F70B6B29F80B6A297B3021
:1002E000F700F70B7129800B68290800840183133C
:1002F0001F308305831603178715083003139900F1
:1003000002309A00A630980090308312980083162D
:1003100003170908C039890003131F129F12003008
:10032000031788008312870188018901FF300313B6
:10033000A700BE010130BF0083168501063086008C
:1003400003170908C039890003131F129F120030D8
:1003500003178800831203131F139F1383169F1321
:1003600083121F1483160108C739083881008312CD
:1003700090010030F8009200003083169200831242
:100380000317870188018901831603138C168C15C6
:10039000C03083128B046F300C1ECC2999006B3057
:1003A0000C1ED02999000D300C1ED42999003E084E
:1003B0000319ED29013A03190C2A023A03192D2ACF
:1003C000063A03192E2A083A03192F2A183A031954
:1003D000302A283A0319312A322A3F1C0B2A3E08B8
:1003E000BF00843003178D0000308F000313962068
:1003F0005030C000C1011030C4004008C5004108A1
:10040000C60028212030C4004008C5004108C600AD
:1004100028213E088500322ABF08031D2C2A3E08E9
:10042000BF008E3003178D0000308F00031396201D
:100430005030C2000130C3001030C4004208C50073
:100440004308C60028212030C4004208C5004308E4
:10045000C60028213E088500322A322A322A322A52
:08046000322A322AD729630079
:04400E00F22CFF3F52
:00000001FF
;PIC16F886
;CRC=E69E  CREATED="08-Jul-16 23:54"
