:1000000003308A00512B0000FF00030E8301A10082
:100010000A08A0008A010408A2007708A300780853
:10002000A4007908A5007A08A600831383128C30F7
:100030008400801E1D288C1A2E2822088400230884
:10004000F7002408F8002508F9002608FA0020081F
:100050008A00210E8300FF0E7F0E09008A110A120A
:10006000B228CC1B44280F30F7004B0EF7050A309E
:10007000770203183E283030F70740284C08F7076E
:1000800077080C1E412899000F30CB050A304B022F
:1000900003184C2830304E28CC134C08CB074B08A3
:1000A0000C1E5028990008000830F8000000871145
:1000B000A81128088316870000008312CF0D0712AD
:1000C000031C682828162808831687006C288312CA
:1000D000281228088316870000008312A815280814
:1000E000831687008312871D7328F80B562800009B
:1000F0008711A8112808831687000000831228168C
:10010000280883168700000000008312A81528081D
:10011000831687008312871D8B28F8010000071AB9
:1001200078148711A81128088316870083120712F4
:100130002812280883168700831208004E30840096
:10014000831300080319B1280630F800F701F70BF4
:10015000A728F80BA6287B30F700F70BAD28800BFB
:10016000A42808008C1EB2281A08C90049083A3A87
:100170000319BE28373A0319C228692ABD01013084
:10018000BE00752A3E0B682A29303D078400831380
:1001900080012908703A0319E328203A0319E3285B
:1001A000233A0319F128203A0319F1283B3A03199D
:1001B000632A203A0319632A3C3A0319662A203A33
:1001C0000319662A672A2A08303A0319EB28013AEC
:1001D0000319ED28F028BF01F0280130BF00F028F6
:1001E000672A5330C1002A08303A0319FE28013A21
:1001F00003190829033A0319B529622A3F08CB00DD
:100200005730CC0031200D300C1E04299900622A91
:100210001030CB004108CC00281628088316870030
:1002200000008312A8152808831687000000831297
:1002300007122812280883168700000083128711EE
:10024000A81128088316870083124B08CF0054207A
:100250004C08CF0054202816280883168700000079
:100260008312A81528088316870000008312871DB3
:1002700037290712281228088316870000008312E6
:100280008711A811280883168700013083124B07B5
:10029000CD00CF005420F7010830CF007708D00000
:1002A000281628088316870000008312A81528083E
:1002B000831687008312871D5B29071A0314071E04
:1002C0000310F80D0000A811280883168700831278
:1002D0008711CF0B502928162808831687000000A5
:1002E00083120712500803197A2928122808831646
:1002F000870083120000A815280883168700831240
:10030000871D802900008711A811280883168700FF
:100310000000831207122812280883168700780825
:100320008312CA002812280883168700000083124F
:10033000A8152808831687008312871D9D290000B1
:10034000A1290000281628088316870000003230F3
:100350008312CE009E204A08CB005730CC003120BB
:100360000D300C1EB1299900622A1030CB004108D3
:10037000CC00281628088316870000008312A815D1
:100380002808831687000000831207122812280805
:1003900083168700000083128711A811280883168E
:1003A000870083124B08CF0054204C08CF00542004
:1003B000281628088316870000008312A81528082D
:1003C0008316870000008312871DE4290712281274
:1003D000280883168700000083128711A8112808B7
:1003E00083168700013083124B07CD00CF005420C5
:1003F000F7010830CF007708D000281628088316A8
:10040000870000008312A81528088316870083122E
:10041000871D082A071A0314071E0310F80D000091
:10042000A81128088316870083128711CF0BFD2996
:100430002816280883168700000083120712500828
:100440000319272A28122808831687008312000020
:10045000A8152808831687008312871D2D2A0000FF
:100460008711A8112808831687000000831207123D
:10047000281228088316870078088312CA002812D9
:1004800028088316870000008312A8152808831601
:1004900087008312871D4A2A00004E2A0000281672
:1004A000280883168700000032308312CE009E2079
:1004B0004A08CB005730CC0031200D300C1E5E2A8C
:1004C0009900622A672A0330BF00672A672ABE01A3
:1004D000752A3D08133C031C742A29303D0784000B
:1004E000831349088000BD0A752A8C128A110A12EA
:1004F0001D28C432F332EE32F233693D6137E437FE
:100500002E17AE06000045376539E734FA306E32F3
:100510006F172E170D00C837ED34EE33A032F331CC
:10052000EC30F637A0182E17AE060001C837ED34B0
:10053000EE33A032F331EC30F63720192E17AE0629
:100540000001C539F032F2306E326F104F39E432AB
:10055000EE3273172E170D00831603178C170C1429
:100560000000000083120C087F390319F22A0313DC
:10057000C40003170D080313C50003170F08031366
:10058000C60044080C1EC22A9900450803178D00B6
:100590000313460803178F0083168C170C140000F2
:1005A000000083120C0D0E0D7F390319F22A03137C
:1005B000C40003170D080313C50003170F08031326
:1005C000C60044080C1EE22A9900450803178D0056
:1005D0000313460803178F008D0A03198F0A0313AC
:1005E000AC2A03170313080028162808831687006F
:1005F00000008312A81528088316870000008312C4
:10060000071228122808831687000000831287111A
:10061000A8112808831687008312A7018B1BA71730
:100620008B134408CF005420A71B8B17A7018B1BEB
:10063000A7178B134508CF005420A71B8B17A701C2
:100640008B1BA7178B134608CF005420A71B8B17B3
:10065000A7018B1BA7178B134708CF005420A71B9C
:100660008B17281228088316870000008312A8150C
:100670002808831687008312871D3C2B0000402B1F
:100680000000281628088316870000008312A7019F
:100690008B1BA7178B133230CE009E20A71B8B1706
:1006A0000800840183131F30830583160317871501
:1006B00008300313990002309A00A6309800903059
:1006C00083129800831603170908C03989000313A1
:1006D0001F129F12003003178800831287018801C0
:1006E0008901FF300313A800BF010130C0000030B2
:1006F0008316850007108714071583122810280811
:100700008316870083120710C30183160317090895
:10071000C039890003131F129F120030031788008D
:10072000831203131F139F1383169F1383121F1427
:1007300083160108C7390838810083129001003000
:10074000F80092000030831692008312031787018D
:1007500088018901831603138C16C03083128B0421
:100760006F300C1EB12B99006B300C1EB52B99000D
:100770000D300C1EB92B99003F080319D22B013AFA
:100780000319F82B023A03191E2C063A0319982C68
:10079000083A0319AB2C183A0319AC2C283A031960
:1007A000AD2CAE2C5030C100401CF72B3F08C000D0
:1007B000793003178D0002308F000313AC22C20181
:1007C0001030C4004108C5004208C6004308C700F5
:1007D000F4222030C4004108C5004208C600430886
:1007E000C700F4228316850183123F088500AE2CD2
:1007F000C008031D1D2C3F08C000833003178D0067
:1008000002308F000313AC220130C2001030C4004C
:100810004108C5004208C6004308C700F422203042
:10082000C4004108C5004208C6004308C700F422BE
:100830008316850183123F088500AE2C401C972C3F
:100840003F08C0008316850183123F0885004830A9
:10085000C1008B3003178D0002308F000313AC22D0
:10086000C2012030C4004108C5004208C600430848
:10087000C700F4220130C2001030C4004108C50096
:100880004208C6004308C700F422A81428088316AB
:1008900087008312871C452CA8142808831687001C
:1008A000831287184C2C5830C1002030C4004108F6
:1008B000C5004208C6004308C700F4224830C10002
:1008C000963003178D0002308F000313AC22C20153
:1008D0001030C4004108C5004208C6004308C700E4
:1008E000F4220130C2002030C4004108C500420893
:1008F000C6004308C700F42228152808831687007D
:100900008312071D7C2C2815280883168700831264
:100910000719832C5830C1001030C4004108C500AD
:100920004208C6004308C700F4220530BF00AE2CC1
:100930003F0840020319A52C3F08C000A13003174F
:100940008D0002308F000313AC22831685018312C1
:100950003F088500AE2CAE2CAE2CAE2CBC2B630019
:04400E00F22CFF3F52
:00000001FF
;PIC16F886
;CRC=A348  CREATED="10-Jul-16 00:38"
