:1000000010308A0000280000FF00030E8301A100C9
:100010000A08A0008A010408A2007708A300780853
:10002000A4007908A5007A08A600831383128C30F7
:100030008400801E1D288C1A2E2822088400230884
:10004000F7002408F8002508F9002608FA0020081F
:100050008A00210E8300FF0E7F0E09008A110A120A
:10006000F72AC5396336613B6F1031102D1F202BE5
:10007000ED307810A8126C3CA9060000C539633633
:10008000613B6F1032102D1F202B6536A01EA01271
:100090006C3C0D00C5396336613B6F1031102D1F6C
:1000A000202B6536A01EA0126C3C0D00C5396336AE
:1000B000613B6F1032102D1F202BED307810A812ED
:1000C0006C3CA9060001C5396336613B6F103110E5
:1000D0002D1F202BED307810A8126C3CA9060001D2
:1000E000C5396336613B6F1032102D1F202BED3068
:1000F0007810A8126C3CA9060000D03A6E3A6F1036
:100100004937E931E9306C10F232E334E234E43754
:100110002014253664102C102536E4140D00C6304A
:100120006C3A61372032613AEF39AE06D3346E3A19
:10013000613CE93920326536A031EF366137E4376A
:10014000A0163E10BA24783C783CF93CF93C0D00EE
:10015000CD37F4377210F3346E10F232E632F232E9
:10016000EE31E93072172024E13165392034EF3661
:10017000693767170D00D03A6E3A6F10C634EE300B
:100180006C10F232E334E234E43720142536641084
:100190002C102536E4140D00C6306C3A613720323D
:1001A000613AEF39AE06D3346E3A613CE939203218
:1001B0006536A031EF366137E437A0163E103A239A
:1001C000783C783CF93CF93C0D00CD37F43772109F
:1001D000F3346E10F232E632F232EE31E930721759
:1001E0002024E13165392034EF36693767170D0077
:1001F0008316B91B0E290F30F700380EF7050A30A9
:100200007702031806293030F70708293908F7075D
:10021000770883120C1E0A29990083160F30B8053F
:100220000A3038020318162930301829B913390852
:10023000B807380883120C1E1B29990008000830E3
:10024000F80000008711A811280883168700000015
:10025000BC0D83120712031C3329281628088316A5
:100260008700372983122812280883168700000088
:100270008312A8152808831687008312871D3E293C
:10028000F80B212900008711A81128088316870080
:10029000000083122816280883168700000000003B
:1002A0008312A8152808831687008312871D5629F4
:1002B000F8010000071A78148711A811280883167E
:1002C00087008312071228122808831687008312DA
:1002D0000800BB3084008313000803197C29063012
:1002E000F800F701F70B7229F80B71297B30F70042
:1002F000F70B7829800B6F2908008316BA01B90122
:10030000BB013B08033C031CB8293A08BD0039086F
:10031000BC00BF010A30BE001030C000F701FA0176
:10032000BD0CBC0C031C9A293E08F7070318FA0AF7
:100330003F08FA07FA0CF70CF90CF80CC00B9029DF
:100340007908BD007808BC003B0838072E3E8400C1
:1003500083130008BC070318BD0A30303C02B90003
:100360003D08BA000030031C0130BA02BB0A8129E3
:100370003908F8003A08F9008312080083160317B9
:100380008C170C14000000000318F52983120C08C8
:100390007F3983160313B900831203170D088316E0
:1003A0000313BA00831203170F0883160313BB004D
:1003B000390883120C1EDA29990083163A08831231
:1003C00003178D00831603133B08831203178F0056
:1003D00083168C170C14000000000313B80BF129CE
:1003E000F3290317F5291F2A031783120C0D0E0D8D
:1003F0007F3983160313B900831203170D08831680
:100400000313BA00831203170F0883160313BB00EC
:10041000390883120C1E0A2A990083163A0883129F
:1004200003178D00831603133B08831203178F00F5
:100430008D0A03198F0A83160313B80BBF29831281
:1004400008008316C0010408BF004010831B40143D
:10045000B91F322ABF173F1EBF0AB809B909B80A27
:100460000319B90A390EF038BB00BB07E23EBC00E5
:10047000323EBE0039080F39BC07BC07BE07E93E53
:10048000BD00BD07BD07380E0F39BD07BE07BD0D46
:10049000BE0DBE09BE0D38080F39BE07BB0D0730B3
:1004A000BA000A30BE07BD03031C522ABD07BC03B5
:1004B000031C562ABC07BB03031C5A2ABB07BA03FA
:1004C000031C5E2ABA308400831307303F053F13B4
:1004D00084033F05031D732A3F1A840A3F1A732AB7
:1004E0002030F700902A8407BE30040203193F171A
:1004F0000008F700031D842A3F1B842A3F1A962A0E
:10050000BF19842A20308F2ABF1F8C2A2D30F70074
:1005100084033F13BF13902ABF153F123030F707F3
:10052000770883120C1E922A99008316840A3F1FB3
:10053000742A83120800831603178C170C1400000A
:10054000000083120C087F390319F52A8316031360
:10055000B800831203170D0883160313B900831222
:1005600003170F0883160313BA00380883120C1EF2
:10057000B72A990083163908831203178D00831652
:1005800003133A08831203178F0083168C170C1479
:100590000000000083120C0D0E0D7F390319F52A9F
:1005A00083160313B800831203170D088316031371
:1005B000B900831203170F0883160313BA00380813
:1005C00083120C1EE12A990083163908831203173F
:1005D0008D00831603133A08831203178F008D0AC8
:1005E00003198F0A03139B2A0317031308008C1E99
:1005F000F72A1A088316B60036083A3A8312031906
:10060000052B373A0319092BA12DC2010130C30074
:10061000AF2D430BA02D2E304207840083138001A1
:100620002E08703A0319302B203A0319302B233A45
:100630000319422B203A0319422B3B3A0319D22CBF
:10064000203A0319D22C213A0319D72C203A031946
:10065000D72C2F3A03193D2D203A03193D2D9F2DFC
:100660002F08303A0319382B013A03193C2B412B40
:100670002908AA00A901412B2908AA000130A900D4
:10068000412B9F2D5330AB002F08303A03194F2BCD
:10069000013A03195B2B033A0319162CD12C2908B4
:1006A0008316B8005730B9008312F8200D300C1EA5
:1006B000572B9900D12C10308316B80083122B08C9
:1006C0008316B900831228162808831687000000B5
:1006D0008312A815280883168700000083120712CA
:1006E0002812280883168700000083128711A8119A
:1006F0002808831687003808BC0083121F21831640
:100700003908BC0083121F21281628088316870089
:1007100000008312A81528088316870000008312A2
:10072000871D902B071228122808831687000000C7
:1007300083128711A8112808831687000130380713
:10074000BA00BC0083121F21F70108308316BC00D9
:100750007708BD008312281628088316870000003A
:100760008312A8152808831687008312871DB62BCD
:10077000071A0314071E0310F80D0000A81128081B
:1007800083168700831287118316BC0BAA2B831252
:100790002816280883168700000083120712831684
:1007A0003D080319D82B83122812280883168700C6
:1007B00000008312A8152808831687008312871D5E
:1007C000DF2B00008711A81128088316870000007E
:1007D0008312071228122808831687007808B700AA
:1007E0008312281228088316870000008312A81598
:1007F0002808831687008312871DFC2B0000002C1D
:100800000000281628088316870000003230BB003D
:100810008312692183163708B8005730B900831254
:10082000F8200D300C1E122C9900D12C103083169C
:10083000B80083122B088316B900831228162808E3
:100840008316870000008312A815280883168700E6
:100850000000831207122812280883168700000060
:1008600083128711A8112808831687003808BC0056
:1008700083121F2183163908BC0083121F212816FA
:1008800028088316870000008312A81528088316FD
:10089000870000008312871D4B2C0712281228089E
:1008A00083168700000083128711A8112808831679
:1008B000870001303807BA00BC0083121F21F701FE
:1008C00008308316BC007708BD008312281628085C
:1008D0008316870000008312A81528088316870056
:1008E0008312871D712C071A0314071E0310F80DBD
:1008F0000000A81128088316870083128711831629
:10090000BC0B652C8312281628088316870000006C
:100910008312071283163D080319932C83122812A1
:1009200028088316870000008312A815280883165C
:1009300087008312871D9A2C00008711A8112808B0
:1009400083168700000083120712281228088316D6
:1009500087007808B70083122812280883168700BA
:1009600000008312A8152808831687008312871DAC
:10097000B72C0000BB2C000028162808831687001F
:1009800000003230BB008312692183163708B8009B
:100990005730B9008312F8200D300C1ECD2C990071
:1009A000D12C9F2D2908AA000330A9009F2D2908CA
:1009B0000539053C031D352D4208093C031D2D2D2D
:1009C00001308316B80083127D217908C5007808AC
:1009D000C40005308316B80083127D217908C70052
:1009E0007808C6007D3003178D0000308F0003109B
:1009F000183083160313B8008312BE211030840010
:100A000045088316B900831244088316B800831280
:100A1000212220300C1E0A2D99002C300C1E0E2D88
:100A2000990020300C1E122D9900103084004708C8
:100A30008316B900831246088316B8008312212258
:100A400029300C1E212D99000D300C1E252D9900EA
:100A50002908AA000D30A900342D8F3003178D000E
:100A600000308F0003139B223C2DA83003178D000C
:100A700000308F0003139B229F2D2908053903198D
:100A8000972D4208093C031D8F2D01308316B800B5
:100A900083127D217908C9007808C80005308316C3
:100AA000B80083127D217908CB007808CA00BB30DA
:100AB00003178D0000308F000310163083160313C8
:100AC000B8008312BE211030840049088316B90093
:100AD000831248088316B8008312212220300C1E8E
:100AE0006F2D99002C300C1E732D990020300C1E98
:100AF000772D9900103084004B088316B9008312BB
:100B00004A088316B8008312212229300C1E862D34
:100B100099000D300C1E8A2D99004C14962DCC3066
:100B200003178D0000308F0003139B229E2DE530AC
:100B300003178D0000308F0003139B229F2DC301EC
:100B4000AF2D4208133C031CAE2D2E30420784000B
:100B500083138316360880008312C20AAF2D8C12CD
:100B60008A110A121D28C432F332EE32F233693D83
:100B70006137E4372E17AE06000145376539E73493
:100B8000FA306E326F172E170D00C837ED34EE3382
:100B9000A032F331EC30F637A0182E17AE06000164
:100BA000C837ED34EE33A032F331EC30F63720198C
:100BB0002E17AE060001C837ED34EE33203A653902
:100BC000ED34EE30E4372E10C539F032F2306E32AB
:100BD0006F106F39E432EE3273172E170D00D332D7
:100BE000E7366537F437203A6539ED34EE30E437CF
:100BF0002E10C539F032F2306E326F106F39E43298
:100C0000EE3273172E170D00C4327338EC30FA3001
:100C10006E326F106136A034EE34E3346F172E1746
:100C20000D004F31EA243A10253675103D10253C51
:100C3000A012F80600004F316A223A1025367510CE
:100C40003D10253CA012F8060001D037F334E33400
:100C50006F37A034EE34E3346136A030EC316137C5
:100C6000FA30E4302E10C539F032F2306E326F10A7
:100C7000E3376F39E432EE30E430203369376136E0
:100C80002E17AE0600015039653861396137E437F7
:100C9000203861396110E434E23AEA3072172E17D5
:100CA0000D004F31EA243A10253675103D10253CD1
:100CB000A012F80600014F316A223A10253675104D
:100CC0003D10253CA012F8060000281628088316BF
:100CD000870000008312A8152808831687000000EB
:100CE0008312071228122808831687000000831237
:100CF0008711A8112808831687008312A7018B1B70
:100D0000A7178B135F088316BC0083121F21A71B34
:100D10008B17A7018B1BA7178B1360088316BC00CA
:100D200083121F21A71B8B17A7018B1BA7178B13E0
:100D300061088316BC0083121F21A71B8B17A70114
:100D40008B1BA7178B1362088316BC0083121F210D
:100D5000A71B8B1728122808831687000000831210
:100D6000A8152808831687008312871DB52E00005A
:100D7000B92E000028162808831687000000831269
:100D8000A7018B1BA7178B1332308316BB0083126E
:100D90006921A71B8B17080058080739F700580C62
:100DA000F800F80CF80C1F30F80578085A07840092
:100DB00083135B188317F801F80AF70AE02EF80D81
:100DC000F70BDF2ED9080319E82E78088004EB2EE4
:100DD000F80978088005080058080739F700580C0A
:100DE000F800F80CF80C1F30F80578085907840053
:100DF00083135A1883170008F800F70A002FF80C1D
:100E0000F70BFF2E08004830AB00AC015608DF009E
:100E10002B08E0002C08E1002D08E20065260130D7
:100E2000AC005508DF002B08E0002C08E1002D087D
:100E3000E20065265708D8000130D900DB01803078
:100E4000DA00CC265708D800DA01D901EC26781C44
:100E50001A2F5708D8000130D900DB018030DA00A2
:100E6000CC265708D800DA01D901EC267818292FAA
:100E70005830AB005608DF002B08E0002C08E100DA
:100E80002D08E200652608008E30F7006008F800A3
:100E90005F08F900FA01F808031D582F7908F800D7
:100EA000F9010830F702F808031D582FF701602FE9
:100EB0000310F81B5F2FF90DF80DF703582FF813E7
:100EC000080073080319E02F8316A0007B08031D98
:100ED0006B2F8312E02FA0070318792F7F30A00219
:100EE0000318742F8312E02F031D782F8312E02F35
:100EF0007F2F8130A007031C7F2F8312E02F200853
:100F0000F700F801F901FA017408A400A4177508A4
:100F1000A3007608A2001830A000A101221CA82F6F
:100F20007E08FA07031C9A2FF90A031D9A2FF80A64
:100F30000319A1177D08F907031CA12FF80A03194B
:100F4000A1177C08F500F5177508F8070318A11715
:100F5000A10DF80CF90CFA0CA40CA30CA20C0310B4
:100F6000A00B8D2F0130F707031CB82F8312E02F41
:100F7000F81BC22FA40DFA0DF90DF80DF70BC22FB7
:100F80008312E02FA41FD52FFA0A031DD52FF90ACB
:100F9000031DD52FF80A031DD52FF80CF90CFA0CF8
:100FA000F70A031DD52F8312E02F7408A1007C08D7
:100FB000A106A11FDD2FF817E52FF813E52F8312E7
:0E0FC000F701F801F901FA0183168312080007
:101000008030831C06288316AB0683128316B0013A
:10101000B1012708AF002B08AF0626080319F428F2
:10102000AE00F7002A080319FD28AE02031999281B
:10103000031C57282B08B400B4172C08B3002D0844
:10104000B200B1010310B40CB30CB20CB10CAE0B76
:101050002128AF1F2E283014112930102E103016E1
:10106000A9308400831326293012AF1B41282E1C7F
:101070004C28B40CB30CB20CB10CF70A03190C29B0
:101080004C28B41B4F280310B10DB20DB30DB40D95
:10109000F70303190C2941283017B9283013270802
:1010A000AF00AF1F5528B4170529B41305292A0826
:1010B000AE00F7002608AE022708B400B4172808CF
:1010C000B3002908B200B1010310B40CB30CB20C88
:1010D000B10CAE0B6328AF1F7028B0141129B010EB
:1010E0002E10B016AD30840083132629B012AF1B2A
:1010F00083282E1C8E28B40CB30CB20CB10CF70A4A
:1011000003190C298E28B41B91280310B10DB20DC0
:10111000B30DB40DF70303190C298328B017B928B0
:10112000B0132B08AF00AF1F9728B4170529B413CD
:1011300005292B08B400B4172C08B3002D08B20001
:10114000AF1FA628B413301511293011B1012E108C
:10115000A930840083132629AF1BCF282708AF00AE
:101160002E1CB928B40CB30CB20CB10CF70A03193D
:101170000C29B11FCA28B20A031DCA28B30A031DCD
:10118000CA28B40A031DCA28B40CB30CB20CF70A5F
:1011900003190C29301B4E28B01B9028EE288030F4
:1011A000B406B41FD72811292B08AF00E42827085C
:1011B000AF00B408031DE428B308031DE428B208F7
:1011C000031DE428F7010529B41BEE280310B10D17
:1011D000B20DB30DB40DF70BE4280C29AF1FF228A4
:1011E000B4170529B41305292A08F7002B08B40001
:1011F0002C08B3002D08B20005292608F70027089F
:10120000B4002808B3002908B2003408F8003308F5
:10121000F9003208FA004429F701F801F901FA014E
:101220004429B101B209B309B409B109B10A031DD6
:101230001F29B20A031D1F29B30A0319B40A301863
:101240002D28B0186F283019A528D4280008B20717
:10125000031C3029B30A031D3029B40A03192E14C4
:1012600084030008B307031C3829B40A03192E1499
:1012700084030008801F803AB40703182E14301A24
:101280003428B01A7628AC28831208008316270861
:10129000AE002B08AE06AE1F522903110310A71B88
:1012A000031485292708AE002A08AF002608AF02DC
:1012B00003196029AE1F85290308013A8300852997
:1012C0002B08AF002708AF0203196C29AE1F852930
:1012D0000308013A830085292C08AF002808AF02D3
:1012E00003197829AE1F85290308013A830085294F
:1012F0002D08AF002908AF0203198429AE1F8529E4
:101300000308013A8300852903108312080083161D
:10131000260803194D2AB2002A0803194D2AB202E1
:10132000031C97297F30B20703184D2A9D2981306D
:10133000B202031C4D2A03194D2A3208F700F801A6
:10134000F901FA01B1012708B000B0172808AF0071
:101350002908AE001930B2002D08AE020318C029CA
:101360000130AF020318C029B0020318C029B1022E
:101370000318C029B10AB00AAF0A2D08AE07F22936
:101380002C08AF020318DB290130B0020318DB2957
:10139000B1020318DB29B10AB00A2C08AF072D08E7
:1013A000AE07031CF229AF0A031DF229B00A031D80
:1013B000F229B10AF2292B088038B0020318F1296A
:1013C0000130B1020318F129B10A2B088038B007A7
:1013D0002C08AF07031CCF29B00A031DCF29B10A7F
:1013E000CF297A14B20BF529002A0310AE0DAF0DE8
:1013F000B00DB10D0310FA0DF90DF80DB30DAC29B8
:10140000331C082A0310F80CF90CFA0CB30C0B2A45
:10141000F70303194D2AB31B342A0310AE0DAF0D89
:10142000B00DB10D2D08AE020318202A0130AF0215
:101430000318202AB0020318202AB102031C432AF1
:101440002C08AF0203182B2A0130B00203182B2AF4
:10145000B102031C432A2B088038B0020318342A37
:101460000130B102031C432AFA0A031D432AF90A78
:10147000031D432AF80A031D432AF70A03194D2ABC
:10148000F80CF90CFA0C2708B2002B08B206B21FB0
:101490004B2AF817512AF813512AF701F801F901DC
:1014A000FA018312080074088316A9007308A800C3
:1014B0007208A7007108A600AD01AC01AB01AA013A
:1014C000831246210318662A031D6B2AF701F801CF
:1014D000F901FA01F12A7408FE007308FD00720890
:1014E000FC007108FB00F6017B30F50075088316DF
:1014F000A4007608A5007508840083137618831766
:101500000008A701A6007F30A6070318A70A03104A
:10151000270CFA00260CF900A60024088400831387
:1015200025188317260880007E08A3007D08A200E6
:101530007C08A1007B08A0007408A9007308A8001B
:101540007208A7007108A6007E08AD007D08AC00F7
:101550007C08AB007B08AA008312872183107E08D9
:101560008316A9007D08A8007C08A7007B08A600B8
:101570007A08AD007908AC007808AB007708AA00BB
:10158000831200207A08FE007908FD007808FC002C
:101590007708FB007508840083137618831780038F
:1015A00083162308A9002208A8002108A700200804
:1015B000A6007E08AD007D08AC007C08AB007B086F
:1015C000AA00831246210319E72A8316942A831658
:1015D0002008F7002108F8002208F9002308FA0083
:1015E000831208008E30F7007308F7027408F900C0
:1015F0007508F800F917F7080319092B0310F90803
:10160000031D052BF8080319092BF90CF80CF70B2F
:10161000FE2AF41F102BF809F909F80A0319F90A30
:1016200008007008F6006F08F5006E08F4006D08F9
:10163000F300E930FE00B730FD004B30FC00833092
:10164000FB008A1161278A157A08F6007908F500EF
:101650007808F4007708F300F2227908F20078089D
:10166000F1007108F8007208F90008006008F6003F
:101670005F08F5005E08F4005D08F3006008FE00F6
:101680005F08FD005E08FC005D08FB008A11612711
:101690008A157708E9007808EA007908EB007A08EB
:1016A000EC006408F6006308F5006208F4006108C5
:1016B000F3006408FE006308FD006208FC00610896
:1016C000FB008A1161278A1583106C088316A90014
:1016D00083126B088316A80083126A088316A7007A
:1016E000831269088316A6007A08AD007908AC0059
:1016F0007808AB007708AA00831200207708E90079
:101700007808EA007908EB007A08EC00F400790820
:10171000F3007808F2007708F10053227A08E80015
:101720007908E7007808E6007708E5006808F00027
:101730006708EF006608EE006508ED0011237908E0
:10174000080083148316A9014030A8001C30A700AC
:101750008A30A600831260088316AD0083125F08EA
:101760008316AC0083125E088316AB0083125D08FB
:101770008316AA00831200207A08E8007908E7009F
:101780007808E6007708E5006808F6006708F500C5
:101790006608F4006508F3006808FE006708FD00AD
:1017A0006608FC006508FB008A1161278A15770826
:1017B000ED007808EE007908EF007A08F000640880
:1017C000F6006308F5006208F4006108F30064089D
:1017D000FE006308FD006208FC006108FB008A113E
:1017E00061278A15831070088316A90083126F0879
:1017F0008316A80083126E088316A70083126D0853
:101800008316A6007A08AD007908AC007808AB0012
:101810007708AA00831200207708ED007808EE0010
:101820007908EF007A08F000F4007908F3007808EE
:10183000F2007708F10053227A08EC007908EB00F7
:101840007808EA007708E9006C08F0006B08EF0000
:101850006A08EE006908ED00112379080800DD012F
:101860000408DC005D10831B5D14560EF038D800B0
:10187000D807E23ED900323EDB0056080F39D907BF
:10188000D907DB07E93EDA00DA07DA07550E0F3928
:10189000DA07DB07DA0DDB0DDB09DB0D55080F3945
:1018A000DB07D80D0730D7000A30DB07DA03031C4B
:1018B000552CDA07D903031C592CD907D803031C6C
:1018C0005D2CD807D703031C612C57308400831389
:1018D00007305C055C1384075B30040203195C1756
:1018E0000008F700031D7C2C5C1B7C2C5C1A842CEC
:1018F000DC197C2C20307F2CDC155C123030F70793
:1019000077080C1E812C9900840A5C1F6C2C08003F
:10191000D801D701D601D501DC01DB01DA01D901FB
:10192000DE01DD0152084E02031CB52C031D9C2C68
:101930004D0851020318B52C51084D02F7004E080E
:10194000FA005208031C520FFA027708DF007A08E7
:10195000E0008A1144278A157A08D8007908D70050
:101960007808D6007708D500CD2C4D085102F70035
:101970005208FA004E08031C4E0FFA027708DF00E7
:101980007A08E0008A1144278A157A08D800790875
:10199000D7007808D6007708D50054085002031CF9
:1019A000F02C031DD72C4F0853020318F02C5308BA
:1019B0004F02F7005008FA005408031C540FFA02B3
:1019C0007708DF007A08E0008A1144278A157A0830
:1019D000DC007908DB007808DA007708D900082DE8
:1019E0004F085302F7005408FA005008031C500F28
:1019F000FA027708DF007A08E0008A1144278A1586
:101A00007A08DC007908DB007808DA007708D9006A
:101A10005C088316A90083125B088316A800831252
:101A20005A088316A700831259088316A60083124A
:101A300058088316AD00831257088316AC00831232
:101A400056088316AB00831255088316AA0083122A
:101A50004621031C082E5430AB00F030AC003C3063
:101A6000AD00313003178D0000308F0003100313D9
:101A7000A7018B1BA7178B1313308316B8008A118D
:101A80008312BE218A15A71B8B17A7018B1BA717D3
:101A90008B13F0308316B8005730B9008A118312C7
:101AA000F8208A15A71B8B17A7018B1BA7178B1371
:101AB0003C308316B8005730B9008A118312F820E1
:101AC0008A15A71B8B1729300C1E642D99000D3029
:101AD0000C1E682D99001030DF002B08E0002C0848
:101AE000E1002D08E2008A1165268A155808831640
:101AF000A900831257088316A8008312560883167C
:101B0000A700831255088316A60083125C0883166B
:101B1000AD0083125B088316AC0083125A0883164B
:101B2000AB00831259088316AA0083128721770815
:101B3000DF007808E0007908E1007A08E200F600AA
:101B40007908F5007808F4007708F300FE013030DA
:101B5000FD007C30FC008A30FB008A1161278A1569
:101B60007A08F6007908F5007808F4007708F300A1
:101B7000F2227808FF3CDD00FF30DE007908031C0C
:101B8000790FDE025E08AC005D08AD003E30031741
:101B90008D0000308F0003100313A7018B1BA717C4
:101BA0008B1313308316B8008A118312BE218A1555
:101BB000A71B8B17A7018B1BA7178B135E08831618
:101BC000B8005730B9008A118312F8208A15A71B74
:101BD0008B17A7018B1BA7178B135D088316B80003
:101BE0005730B9008A118312F8208A15A71B8B176A
:101BF0000D300C1EF92D99002030DF002B08E0007D
:101C00002C08E1002D08E2008A1165268A15982F1C
:101C100058088316A900831257088316A800831258
:101C200056088316A700831255088316A600831250
:101C30005C088316AD0083125B088316AC00831228
:101C40005A088316AB00831259088316AA00831220
:101C50004621031C082F5430AB005C088316A900F2
:101C600083125B088316A80083125A088316A70004
:101C7000831259088316A600831258088316AD00F4
:101C8000831257088316AC00831256088316AB00E4
:101C9000831255088316AA00831287217708DF0074
:101CA0007808E0007908E1007A08E200F600790897
:101CB000F5007808F4007708F300FE013030FD00ED
:101CC0007C30FC008A30FB008A1161278A157A0873
:101CD000F6007908F5007808F4007708F300F2229E
:101CE0007808FF3CDD00FF30DE007908031C790F27
:101CF000DE025E08AC005D08AD004A3003178D00BF
:101D000000308F0003100313A7018B1BA7178B1341
:101D100013308316B8008A118312BE218A15A71BBF
:101D20008B17A7018B1BA7178B135E088316B800B0
:101D30005730B9008A118312F8208A15A71B8B1718
:101D4000A7018B1BA7178B135D088316B8005730AC
:101D5000B9008A118312F8208A15A71B8B170D3042
:101D60000C1EB02E99001030DF002B08E0002C086C
:101D7000E1002D08E2008A1165268A15F030AC00DA
:101D80003C30AD00563003178D0000308F0003103B
:101D90000313A7018B1BA7178B1313308316B800EF
:101DA0008A118312BE218A15A71B8B17A7018B1BD3
:101DB000A7178B13F0308316B8005730B9008A117B
:101DC0008312F8208A15A71B8B17A7018B1BA71757
:101DD0008B133C308316B8005730B9008A11831238
:101DE000F8208A15A71B8B1729300C1EF52E990099
:101DF0000D300C1EF92E99002030DF002B08E0007A
:101E00002C08E1002D08E2008A1165268A15982F1A
:101E10005430AB00F030AC003C30AD006330031701
:101E20008D0000308F0003100313A7018B1BA71731
:101E30008B1313308316B8008A118312BE218A15C2
:101E4000A71B8B17A7018B1BA7178B13F0308316CB
:101E5000B8005730B9008A118312F8208A15A71BE1
:101E60008B17A7018B1BA7178B133C308316B80069
:101E70005730B9008A118312F8208A15A71B8B17D7
:101E800029300C1E412F99000D300C1E452F990052
:101E90001030DF002B08E0002C08E1002D08E200E4
:101EA0008A1165268A15703003178D0000308F0067
:101EB00003100313A7018B1BA7178B131330831673
:101EC000B8008A118312BE218A15A71B8B17A701A0
:101ED0008B1BA7178B13F0308316B8005730B9004F
:101EE0008A118312F8208A15A71B8B17A7018B1B59
:101EF000A7178B133C308316B8005730B9008A11EE
:101F00008312F8208A15A71B8B1729300C1E862FE9
:101F100099000D300C1E8A2F99002030DF002B080D
:101F2000E0002C08E1002D08E2008A1165268A15E0
:061F30008A110A16882B3D
:10200000840183131F308305831603178715083057
:102010000313990002309A00A63098009030831282
:102020009800831603170908C039890003131F128B
:102030009F120030031788008312870188018901ED
:10204000FF300313A800A9010130AA000030831655
:102050008500071087140715831228102808831697
:10206000870083120710AC01AD018316031709081E
:10207000C039890003131F129F1200300317880014
:10208000831203131F139F1383169F1383121F14AE
:1020900083160108C7390838810083129001003087
:1020A000F800920000308316920083120317870114
:1020B00088018901831603138C16C03083128B04A8
:1020C0004F300C1E612899004B300C1E652899007A
:1020D0000D300C1E69289900290803198228013A3D
:1020E0000319B328023A0319E728063A03192129EC
:1020F000083A03195829183A0319CE2A383A03190D
:10210000ED2A852C2A1CB228AA01B33003178D00B2
:1021100005308F000313A7018B1BA7178B130A121F
:102120009B220A16A71B8B175030AB00AC01103056
:10213000DF002B08E0002C08E1002D08E2000A1265
:1021400065260A162030DF002B08E0002C08E1008D
:102150002D08E2000A1265260A16831685018312ED
:1021600029088500852CAA08031DE6280130AA004D
:10217000BD3003178D0005308F000313A7018B1BA3
:10218000A7178B130A129B220A16A71B8B17503016
:10219000AB000130AC001030DF002B08E0002C0851
:1021A000E1002D08E2000A1265260A162030DF0041
:1021B0002B08E0002C08E1002D08E2000A12652639
:1021C0000A1683168501831229088500852C83163B
:1021D0008501831229088500C53003178D0005305D
:1021E0008F000313A7018B1BA7178B130A129B22C7
:1021F0000A16A71B8B171030D5002030D6003930B7
:10220000D7000A1203270A16D03003178D000530B5
:102210008F000313A7018B1BA7178B130A129B2296
:102220000A16A71B8B172030D5001030D6003A3085
:10223000D7000A1203270A162908AA000530A900A8
:10224000852C2A08033C031D3C292908AA00831673
:102250008501831229088500DB3003178D000530C6
:102260008F000313A7018B1BA7178B130A129B2246
:102270000A16A71B8B174C102A082D3C031D572943
:102280002908AA0083168501831229088500EF30EA
:1022900003178D0005308F000313A7018B1BA717B1
:1022A0008B130A129B220A16A71B8B174C10852C26
:1022B0002908AA00831685018312290885000430A5
:1022C00003178D0006308F000313A7018B1BA71780
:1022D0008B130A129B220A16A71B8B174508E000D6
:1022E0004408DF000A1244270A167708D500780848
:1022F000D6007908D7007A08D8004708E0004608D9
:10230000DF000A1244270A167708D9007808DA0095
:102310007908DB007A08DC005808E0005708DF0085
:102320005608DE005508DD005C08E4005B08E300A9
:102330005A08E2005908E1000A128A1536230A16E3
:102340008A117908CE007808CD004508E0004408DD
:10235000DF000A1244270A167708D5007808D6004D
:102360007908D7007A08D8004708E0004608DF005F
:102370000A1244270A167708D9007808DA00790883
:10238000DB007A08DC005808E0005708DF00560838
:10239000DE005508DD005C08E4005B08E3005A0835
:1023A000E2005908E1000A128A15A1230A168A11CF
:1023B0007908D0007808CF004D30AB004E08AC0053
:1023C0004D08AD00113003178D0006308F0003104B
:1023D0000313A7018B1BA7178B1306308316B800B6
:1023E0000A128312BE210A16A71B8B171030840015
:1023F0004E08D6004D08D5000A128A152F240A1659
:102400008A1120300C1E022A99003D300C1E062A2B
:10241000990020300C1E0A2A9900A7018B1BA717D0
:102420008B132C088316B8005730B9000A12831298
:10243000F8200A16A71B8B1720300C1E1D2A9900A6
:10244000A7018B1BA7178B132D088316B8005730D5
:10245000B9000A128312F8200A16A71B8B170D3039
:102460000C1E302A99001030DF002B08E0002C08E9
:10247000E1002D08E2000A1265260A165008AC0099
:102480004F08AD001B3003178D0006308F0003107E
:102490000313A7018B1BA7178B1306308316B800F5
:1024A0000A128312BE210A16A71B8B171030840054
:1024B0005008D6004F08D5000A128A152F240A1694
:1024C0008A1120300C1E622A99003D300C1E662AAB
:1024D000990020300C1E6A2A9900A7018B1BA717B0
:1024E0008B132C088316B8005730B9000A128312D8
:1024F000F8200A16A71B8B1720300C1E7D2A990086
:10250000A7018B1BA7178B132D088316B800573014
:10251000B9000A128312F8200A16A71B8B170D3078
:102520000C1E902A99002030DF002B08E0002C08B8
:10253000E1002D08E2000A1265260A16A8142808F0
:102540008316870000308312871C0130D6002815BF
:1025500028088316870000308312071D01305604B7
:10256000031D9E2AA81428088316870000308312B2
:1025700087180130D60028152808831687000030F8
:102580008312071901305604031DB22A4C1CCB2AB2
:102590002D30A900CD2A1530A900852C29082A0242
:1025A0000319E82A2908AA0083168501831229083D
:1025B0008500253003178D0006308F000313A70117
:1025C0008B1BA7178B130A129B220A16A71B8B17AC
:1025D0004C1CEC2A2D30A900852C2908AA00831652
:1025E0008501831229088500433003178D000630CA
:1025F0008F000313A7018B1BA7178B130A129B22B3
:102600000A16A71B8B174908E0004808DF000A12CA
:1026100044270A167708D5007808D6007908D7002D
:102620007A08D8004B08E0004A08DF000A12442765
:102630000A167708D9007808DA007908DB007A08EA
:10264000DC005808E0005708DF005608DE00550897
:10265000DD005C08E4005B08E3005A08E20059086A
:10266000E1000A128A1536230A168A117908D20067
:102670007808D1004908E0004808DF000A12442722
:102680000A167708D5007808D6007908D7007A08A6
:10269000D8004B08E0004A08DF000A1244270A1657
:1026A0007708D9007808DA007908DB007A08DC00BE
:1026B0005808E0005708DF005608DE005508DD0026
:1026C0005C08E4005B08E3005A08E2005908E100F6
:1026D0000A128A15A1230A168A117908D4007808EB
:1026E000D300A814280883168700003083128718A7
:1026F0000130D60028152808831687000030831281
:10270000071901305604031D712B0A128A15882CF3
:102710000A168A114430AB005208AC005108AD00D3
:10272000513003178D0006308F0003100313A701EB
:102730008B1BA7178B1306308316B8000A1283125F
:10274000BE210A16A71B8B17103084005208D60032
:102750005108D5000A128A152F240A168A11203032
:102760000C1EB02B99003D300C1EB42B990020306C
:102770000C1EB82B9900A7018B1BA7178B132C08D5
:102780008316B8005730B9000A128312F8200A16CF
:10279000A71B8B1720300C1ECB2B9900A7018B1B7E
:1027A000A7178B132D088316B8005730B9000A12EB
:1027B0008312F8200A16A71B8B170D300C1EDE2B78
:1027C00099001030DF002B08E0002C08E1002D08F4
:1027D000E2000A1265260A165408AC005308AD0040
:1027E0005B3003178D0006308F0003100313A70121
:1027F0008B1BA7178B1306308316B8000A1283129F
:10280000BE210A16A71B8B17103084005408D6006F
:102810005308D5000A128A152F240A168A1120306F
:102820000C1E102C99003D300C1E142C99002030E9
:102830000C1E182C9900A7018B1BA7178B132C08B3
:102840008316B8005730B9000A128312F8200A160E
:10285000A71B8B1720300C1E2B2C9900A7018B1B5C
:10286000A7178B132D088316B8005730B9000A122A
:102870008312F8200A16A71B8B170D300C1E3E2C56
:1028800099002030DF002B08E0002C08E1002D0823
:10289000E2000A1265260A16281028088316870007
:1028A00083120714A81428088316870000308312A7
:1028B000871C0130D60028152808831687000030B1
:1028C0008312071901305604031D522CA81428083E
:1028D000831687000030831287180130D600281530
:1028E0002808831687000030831207190130560428
:1028F000031D662C281028088316870083120710F2
:0E2900002D30AA000530A900852C6C2863003C
:04400E00F22CFF3F52
:00000001FF
;PIC16F886
;CRC=44F4  CREATED="14-Jul-16 03:00"
