:1000000000308A008F280000FF00030E8301A1004A
:100010000A08A0008A010408A2007708A300780853
:10002000A4007908A5007A08A600831383128C30F7
:100030008400801D1D288C192E2822088400230886
:10004000F7002408F8002508F9002608FA0020081F
:100050008A00210E8300FF0E7F0E09008A110A120A
:100060003D280A108A100A11820701340334023431
:10007000063404340B34073408348316941A4828A1
:100080008312AD018316141D48288312AD17831601
:1000900083122D08AD0AAA002A08803C031D5E28A1
:1000A0002808B0003008930014168C118316141819
:1000B0005728F8018312141AF80A8B2814138C1D80
:1000C0005F2813081416AF002A0B69282F08AC000C
:1000D0008B282A08023C031D8B282F08AB002C0814
:1000E000703A03197D28203A03197D28243A031910
:1000F0008A28203A03198A288B282B080319842878
:10010000013A031986288928A80189280130A80006
:1001100089288B288B288C118A110A121D288401AA
:1001200083131F308305A7152708831687008312C2
:100130002716270883168700203093003630831255
:100140009400831603170908C039890003131F128E
:100150009F120030031788008312870188018901EC
:10016000FF300313A7000330AD008316850186011D
:100170000714871407118312A8010130A900AE01EA
:10018000831603170908C039890003131F129F1231
:10019000003003178800831203131F139F13831665
:1001A0009F1383121F1483160108C7390838810072
:1001B0000530831290000030F80092000030831662
:1001C00092008312031787018801890183160313A4
:1001D0008C15C03083128B04280803190229013AB8
:1001E00003190A29023A03191629063A031917298D
:1001F000083A03191829183A03191929283A031932
:100200001A291B29291C09292808A9008601280860
:1002100085001B29A908031D15292808A9002E08F7
:100220003120F8008600280885001B291B291B297E
:0A0230001B291B291B29EC28630081
:04400E00F22CFF3F52
:00000001FF
;PIC16F886
;CRC=94B4  CREATED="09-Jul-16 00:25"
