:1000000001308A0009290000FF00030E8301A100CE
:100010000A08A0008A010408A2007708A300780853
:10002000A4007908A5007A08A600831383128C30F7
:100030008400001C1D280C1834288C308400801D7E
:1000400023288C193728220884002308F700240865
:10005000F8002508F9002608FA0020088A00210E79
:100060008300FF0E7F0E09008A110A1246288A11AA
:100070000A1280280A108A100A11820701340334F8
:100080000234063404340C340834093430088F0048
:100090002F088E0035083302031C6028031D5428E6
:1000A000320834020318602832080319B303B2037C
:1000B000B108031D5E280730B1005F28B103742822
:1000C00033083502031C7428031D6A2834083202E1
:1000D00003187428B20A0319B30A3108073C031D38
:1000E0007328B1017428B10A31083A20B800831688
:1000F00086018312380886000C108A110A12232800
:100100008316941A8B288312B6018316141D8B282C
:100110008312B617831683123608B60AAB002B0873
:10012000803C031DA1282908B90039089300141642
:100130008C11831614189A28F8018312141AF80ADD
:10014000052914138C1DA22813081416B8002B0BB4
:10015000AC283808AC0005292B08023C031DB32845
:100160003808AD0005292B08033C031D0529380874
:10017000AE002C08703A0319D328203A0319D3286B
:10018000383A0319E328203A0319E328303A0319CF
:10019000FA28203A0319FA282C3A03190429203A9C
:1001A0000319042905292D080319DA28013A03192E
:1001B000DC28E228A901E228A908031DE128013072
:1001C000A900E22805292D080319EA28013A031994
:1001D000F628F928290BEF280930A900F528290865
:1001E000053C031DF5280D30A900F9280B30A900A6
:1001F000F928052983160C10831229080D3C031DCC
:1002000003290530A900052905298C118A110A1234
:100210002328840183131F308305A815280883161B
:100220008700831228162808831687001030930051
:10023000363083129400831603170908C0398900E9
:1002400003131F129F1200300317880083128701C7
:1002500088018901FF300313A8000330B600003085
:10026000831685008600071487140711831207116F
:10027000A9010130AA00B101831603170908C0398A
:10028000890003131F129F12003003178800831286
:1002900003131F139F1383169F1383121F148316B8
:1002A0000108C739083881000530831290000030FA
:1002B000F800920000308316920083120317870122
:1002C00088018901831603130C148C15C030831226
:1002D0008B04290803197F29013A03198B290A3A4B
:1002E00003199E29023A0319E329043A0319FE2946
:1002F000083A0319212A383A03192E2A2F2A2A1CD0
:100300008A292908AA0083160C1086018312860107
:10031000290885002F2AAA08031D9D292908AA005B
:1003200083160C10831231083A20B7008316860119
:10033000831237088600290885002F2A2908AA0079
:1003400029088500281128088316870083120715BD
:10035000C530B0006830AF0030088F002F088E0025
:10036000B5010A30B40083160C148312281428082F
:100370008316870083120718C129B3016430B200C5
:10038000B6291530B000A030AF00B5016430B4001C
:1003900028142808831687008312071CD329B30169
:1003A0000A30B200C82983160C10831228112808BD
:1003B0008316870083120711B301B201B501B4019E
:1003C0000530A9002F2A2908AA0029088500C53070
:1003D000B0006830AF0030088F002F088E00B501E4
:1003E0006430B40083160C1483122908093C031DE1
:1003F000FD29B3010A30B200F5292F2A2908AA00E5
:1004000029088500C530B0006830AF0030088F0083
:100410002F088E0032303207B4003308B5000318BD
:10042000B50A83160C14831229080D3C031D202ADB
:1004300032303207B4003308B5000318B50A142A65
:100440002F2A29082A0203192B2A2908AA0033086F
:10045000B5003208B400290885002F2A2F2A6929FF
:02046000630037
:04400E00F22CFF3F52
:00000001FF
;PIC16F886
;CRC=B642  CREATED="10-Jul-16 01:02"
