:1000000001308A007A290000FF00030E8301A1005D
:100010000A08A0008A010408A2007708A300780853
:10002000A4007908A5007A08A600831383128C30F7
:100030008400001C1D280C1834288C308400801D7E
:1000400023288C193728220884002308F700240865
:10005000F8002508F9002608FA0020088A00210E79
:100060008300FF0E7F0E09008A110A1246288A11AA
:100070000A1296280A108A100A11820701340334E2
:100080000234063404340C340834093430088F0048
:100090002F088E0035083302031C6028031D5428E6
:1000A000320834020318602832080319B303B2037C
:1000B000B108031D5E280730B1005F28B103742822
:1000C00033083502031C7428031D6A2834083202E1
:1000D00003187428B20A0319B30A3108073C031D38
:1000E0007328B1017428B10A31083A20B800831688
:1000F00086018312380886000C108A110A12232800
:10010000BC013908BB003B08FA000030BB017A088B
:10011000BC003A08BD00BE013D083B07B4003C08E6
:10012000B5003E0803183E0FB50708008316941A61
:10013000A1288312B6018316141DA1288312B617B5
:10014000831683123608B60AAB002B08803C031DC9
:10015000B7282908B9003908930014168C118316A2
:100160001418B028F8018312141AF80A7629141307
:100170008C1DB82813081416B8002B0BC228380899
:10018000AC0076292B08023C031DC9283808AD00B5
:1001900076292B08033C031D76293808AE002C086D
:1001A000703A0319F528203A0319F528383A03194B
:1001B0000929203A03190929303A03192629203A36
:1001C00003192629353A03193829203A0319382901
:1001D000393A03194629203A03194629303A0319B6
:1001E0006829203A0319682976292D080319FC2863
:1001F000013A0319002908292908AA00A901082998
:10020000A908031D07292908AA000130A900082907
:1002100076292D0803191029013A031920292529C7
:10022000290B17292908AA000930A9001F29290824
:10023000053C031D1F292908AA000D30A900252906
:100240002908AA000B30A9002529762929080D3C88
:10025000031D33293308B5003208B4002908AA0069
:100260000530A90037292908AA000130A9007629FC
:100270002908053C031D45292D08B9002E08BA00A0
:1002800080202908AA001D30A90076292908053CEC
:10029000031D67292D08B9002E08BA00BC013908D2
:1002A000BB003B08FA000030BB017A08BC003A08EA
:1002B000BD00BE013D083B07AF003C08B0003E0852
:1002C00003183E0FB0072908AA001530A9007629A7
:1002D0002908153C031D75292D08B9002E08BA0000
:1002E00080202908AA002D30A90076298C118A11B6
:1002F0000A122328840183131F308305A8152808B8
:10030000831687008312281628088316870010306A
:100310009300363083129400831603170908C039FE
:10032000890003131F129F120030031788008312E5
:10033000870188018901FF300313A8000330B6004C
:100340000030831685008600071487140711831276
:100350000711A9010130AA00B1018316031709088A
:10036000C039890003131F129F1200300317880041
:10037000831203131F139F1383169F1383121F14DB
:1003800083160108C73908388100053083129000B0
:100390000030F80092000030831692008312031799
:1003A000870188018901831603130C148C15C03052
:1003B00083128B0429080319F629013A0319012A2B
:1003C0000A3A03190F2A023A03194B2A043A03196D
:1003D000642A083A0319852A103A0319852A083A2B
:1003E0000319942A303A0319B92AE42A2A1C002A4C
:1003F000AA012908850083160C1086018312860144
:10040000E42A2908850083160C10831231083A204B
:10041000B70083168601831237088600E42A29086C
:1004200085002811280883168700831207159C3041
:10043000B0004030AF0030088F002F088E00B501AB
:100440000A30B40083160C1483122814280883166B
:10045000870083120718302AB3016430B200252ABE
:100460001530B000A030AF00B5016430B4002814DE
:100470002808831687008312071C422AB3010A301A
:10048000B200372AB301B201B501B4010B30AA00A2
:100490000530A900E42A290885009C30B0004030CE
:1004A000AF0030088F002F088E00B5016430B40013
:1004B00083160C1483122908093C031D632AB30117
:1004C0000A30B2005B2AE42A290885009C30B0007B
:1004D0004030AF0030088F002F088E0032303207D6
:1004E000B4003308B5000318B50A83160C14831240
:1004F00029080D3C031D842A32303207B40033082A
:10050000B5000318B50A782AE42AAA1D932A2A12EC
:1005100028112808831687008312071129088500EF
:1005200083160C108312E42A290885002811280854
:100530008316870083120715F030B0003C30AF00FF
:1005400030088F002F088E0083160C1483122908A0
:100550001D3C031DB42A34083202031DB32A35089A
:1005600033020319B42AA72A1D30AA000530A900B6
:10057000E42A29088500A814280883168700831216
:10058000871CBB2A83160C14831228112808831693
:1005900087008312071529082D3C031DDF2AA814A4
:1005A0002808831687008312871CDF2A340832024A
:1005B000031DDE2A350833020319DF2ACB2A2D302A
:0C05C000AA000530A900E42ADA29630033
:04400E00F22CFF3F52
:00000001FF
;PIC16F886
;CRC=B914  CREATED="14-Jul-16 01:07"
